:1000000047C0000055C0000053C0000051C00000B0
:100010004FC000004DC000004BC0000049C00000B0
:1000200047C0000045C0000043C0000041C00000C0
:100030003FC000003DC000003BC0000039C00000D0
:1000400037C0000035C0000033C0000031C00000E0
:100050002FC000002DC000002BC0000029C00000F0
:1000600027C00000D1C0000023C0000021C0000054
:100070001FC000001DC000001BC0000019C0000010
:1000800017C0000015C0000013C0000011C0000020
:1000900011241FBECFEFCDBFDFE3DEBF28E2A0E01B
:1000A000B8E201C01D92A430B207E1F7D5D068C113
:1000B000A7CF90E0FC01EB52FC4B40814F3F09F48D
:1000C0004EC0FC01EC57FC4BE081EE2329F0E130FF
:1000D00099F010F0E63020F1FC01E654FC4BE08191
:1000E000A0E2EA9FF0011124FC5F2081242321F18A
:1000F000611120C046830895FC01E156FC4B5081FC
:10010000533008F05F5F7091010A21E030E001C0D8
:10011000220F5A95EAF7209527232093010ADCCF76
:1001200020E1E29FF0011124E05AF54F21812F7E5A
:100130002183D2CF4583089581569C4BDC018C915D
:10014000309771F08F3F61F07096E80FF11D9FB707
:10015000F8948081611107C0877F80839FBF0895D5
:10016000F0E0E0E0F4CF8860F8CF8FB7F89420910A
:100170000028309101284091022850910328E091F5
:10018000AA0AF091AB0A9091A60A90FF08C02F5FCF
:100190003F4F4F4F5F4FE091AA0AF091AB0A8FBFDC
:1001A000A8EEB3E0D4D024E0F695E7952A95E1F7E0
:1001B0006E0F7F1F811D911D0895CF92DF92EF92E8
:1001C000FF92D3DF6B017C0120E4C20E22E4D21E39
:1001D0002FE0E21EF11C80E4C81682E4D8068FE00E
:1001E000E806F10430F4C1DFC616D706E806F906C2
:1001F000D0F3BBDF6C157D058E059F05D0F3FF9016
:10020000EF90DF90CF9008951F920F920FB60F924C
:1002100011248F939F93AF93BF9380910028909167
:100220000128A0910228B09103280196A11DB11DBB
:100230008093002890930128A0930228B09303286C
:1002400081E08093A60ABF91AF919F918F910F900B
:100250000FBE0F901F90189588ED90E084BF90938B
:1002600061008091020686608093020680910006FC
:10027000816080930006809102068F7C8065809368
:1002800002061092E20583E08093E40581E080930A
:10029000030A9EEF9093270A9093260A80E88093A2
:1002A0002D0A80932B0A8093290A80932C0A80932D
:1002B0002A0A8093280A2BE02093000A1092E50571
:1002C00037E03093810A90938C0A80938D0A25E061
:1002D0002093800A3093910A90939C0A80939D0A00
:1002E0002093900A3093A10A9093AC0A8093AD0AB0
:1002F0002093A00A1092A10A8FE79EE38093AC0A94
:100300009093AD0A8091A50A81608093A50A10920E
:10031000A00A8091A00A81608093A00A789484E06A
:100320008093410488E080934104C0E0D0E061E024
:100330008AE0BFDE42DF60E08AE0BBDE3EDF60E0F5
:100340008BE0B7DE209799F30E940000F0CF09D030
:10035000A59F900DB49F900DA49F800D911D112419
:100360000895A29FB001B39FC001A39F700D811D8E
:100370001124911DB29F700D811D1124911D0895AE
:04038000F894FFCF1F
:100384000000020300000000000000000101010160
:10039400010100000000000000000000010203044D
:1003A4000506070001020300010203040506070015
:1003B4000102030405060000000000000000020220
:1003C40002020303030303030303050505050505EF
:1003D40005010204081020408001020408010204FF
:0C03E40008102040800102040810204096
:00000001FF
